:100000000EC01DC01CC01BC01AC019C018C017C02C
:1000100016C015C014C013C012C011C010C01124E6
:100020001FBECFE5D1E0DEBFCDBF20E0A0E6B0E04F
:1000300001C01D92A336B207E1F77CD07FC0E0CFAC
:1000400021E030E0062E01C0220F0A94EAF7822355
:1000500090E002C0959587956A95E2F7089521E0B2
:1000600030E0062E01C0220F0A94EAF7FC0130812D
:10007000322B3083089521E030E0062E01C0220F9C
:100080000A94EAF72095FC013081322330830895E9
:1000900090916000982B909360000895611105C0C5
:1000A000682F82E690E0E7DF04C0682F82E690E0E8
:1000B000D6DF809162003CC017D010926000109291
:1000C00062001092610088E0E3DF8FE295E701971C
:1000D000F1F700C0000060E087E0E0DF60E086E06C
:1000E000DDDF60E085E0DACFB89AB99ABA9AC098B5
:1000F000C198C29808951F93CF93DF93182FD62FDE
:10010000613009F4C098C0E0C1986C2F812F98DF4E
:10011000811102C0C29801C0C29AC19ACF5FC83093
:1001200099F7D13009F4C09ADF91CF911F910895CA
:1001300061E0E1CFC1DF80E090E00895F894FFCF67
:00000001FF
