:100000000EC028C027C026C025C024C023C022C0DF
:1000100021C020C01FC01EC01DC01CC01BC0112499
:100020001FBECFE5D1E0DEBFCDBF10E0A0E6B0E05F
:10003000E8E3F3E002C005900D92A638B107D9F7C6
:1000400020E0A6E8B0E001C01D92AB38B207E1F7AE
:1000500041D170C1D5CF21E030E0062E01C0220F82
:100060000A94EAF7822390E002C0959587956A95F5
:10007000E2F7089521E030E0062E01C0220F0A9435
:10008000EAF7FC013081322B3083089521E030E023
:10009000062E01C0220F0A94EAF72095FC01308158
:1000A00032233083089590918700982B9093870096
:1000B0000895611105C0682F89E890E0E7DF04C06A
:1000C000682F89E890E0D6DF8091890001C160E067
:1000D00085E0EFDF00C061E085E0EBDF00C060E0BD
:1000E00085E0E7DF88E28A95F1F7000008950F9335
:1000F0001F93CF93DF93C82F60E0ADDF082F61E03F
:100100008C2FA9DF182F62E08C2FA5DFD82F63E09A
:100110008C2FA1DFC82F602F84E0CBDF612F83E01D
:10012000C8DF6D2F82E0C5DF6C2F81E0C2DFDF9179
:10013000CF911F910F91CBCFCF93C82F87E0B9DF1D
:1001400060E086E0B6DF8C2F82958F70D0DF8C2F39
:10015000CF91CDCF61E0F0CFCF93DF93EC018991C8
:10016000882311F0F7DFFBCFDF91CF91089560E096
:10017000E3CF90918A00811102C09E7F01C09160FF
:1001800090938A0080918A008860F1CFCF93DF93AB
:10019000CDB7DEB728970FB6F894DEBF0FBECDBF40
:1001A00098E0E0E6F0E0DE01119601900D929A955C
:1001B000E1F7611161E0E62FF0E0EE0FFF1F21E0B3
:1001C00030E02C0F3D1FE20FF31F9081980F892F15
:1001D000806828960FB6F894DEBF0FBECDBFDF91C2
:1001E000CF91C5CF81E0C3DF87E592E00197F1F7BA
:1001F00000C00000089580918A00982F9460909329
:100200008A008C60B4CF90918A00813011F49260A2
:1002100001C09D7F90938A0080918A008860A7CF5B
:10022000CF93C82F87E045DF60E086E042DF8C2F68
:1002300082958F70CF915BCF60E0F2CF25D0109286
:10024000870084E080938A0082E080938600109289
:1002500089001092880060E087E02BDF60E086E094
:1002600028DF60E085E025DF809187008062E4DFA1
:1002700088E019DF80918700806279DFBCDFB2DF20
:1002800080918600846073CFB89AB99ABA9AC09860
:10029000C198C29808951F93CF93DF93182FD62F3C
:1002A000613009F4C098C0E0C1986C2F812FD3DE73
:1002B000811102C0C29801C0C29AC19ACF5FC830F2
:1002C00099F7D13009F4C09ADF91CF911F91089529
:1002D00061E0E1CFB3DFC0E0D0E08C2F4ADF8C2FAC
:1002E00092DF21E0C2277EDF60E080E04FDF88E61A
:1002F00090E032DF61E080E049DF80E790E02CDFD2
:100300008FE79FE422E1815090402040E1F700C058
:10031000000068DF60E080E039DF8BE790E01CDF01
:100320008FE79FE422E1815090402040E1F700C038
:080330000000D3CFF894FFCFC9
:1003380000004000140054004E4F56412D4954000F
:100348004B2E4B524157435A594B00495420574F53
:06035800524B532100008E
:00000001FF
