S014000053686966744F7574546573742E737265633A
S11300000EC028C027C026C025C024C023C022C0DB
S113001021C020C01FC01EC01DC01CC01BC0112495
S11300201FBECFE5D1E0DEBFCDBF10E0A0E6B0E05B
S1130030E8E4F2E002C005900D92A036B107D9F7CA
S113004020E0A0E6B0E001C01D92A536B207E1F7BA
S1130050F6D0F8C0D5CF21E030E0062E01C0220F43
S11300600A94EAF7822390E002C0959587956A95F1
S1130070E2F7089521E030E0062E01C0220F0A9431
S1130080EAF7FC013081322B3083089521E030E01F
S1130090062E01C0220F0A94EAF72095FC01308154
S11300A032233083089590916100982B90936100DE
S11300B00895611105C0682F83E690E0E7DF04C06E
S11300C0682F83E690E0D6DF80916300B6C060E0DD
S11300D085E0EFDF00C061E085E0EBDF00C060E0B9
S11300E085E0E7DF88E28A95F1F7000008950F9331
S11300F01F93CF93DF93C82F60E0ADDF082F61E03B
S11301008C2FA9DF182F62E08C2FA5DFD82F63E096
S11301108C2FA1DFC82F602F84E0CBDF612F83E019
S1130120C8DF6D2F82E0C5DF6C2F81E0C2DFDF9175
S1130130CF911F910F91CBCFCF93C82F87E0B9DF19
S113014060E086E0B6DF8C2F82958F70D0DF8C2F35
S1130150CF91CDCF60E0F0CF81E0FCDF87E592E086
S11301600197F1F700C00000089580916400982F72
S11301709460909364008C60EDCFCF93C82F87E098
S113018098DF60E086E095DF8C2F82958F70CF91A9
S1130190AECF60E0F2CF2DD01092610086E0809364
S11301A0640082E080936000109263001092620009
S11301B08FE295E70197F1F700C0000060E087E067
S11301C078DF60E086E075DF60E085E072DF8FE570
S11301D09AEE0197F1F700C00000809161008062FF
S11301E0D8DF88E060DF809161008062B3DFBDDF2B
S11301F0B3CFB89AB99ABA9AC098C198C2980895D8
S11302001F93CF93DF93182FD62F613009F4C09832
S1130210C0E0C1986C2F812F1EDF811102C0C298EB
S113022001C0C29AC19ACF5FC83099F7D13009F49E
S1130230C09ADF91CF911F91089561E0E1CFABDFC8
S10B02400000FECFF894FFCF8B
S9030000FC
