S014000053686966744F7574546573742E737265633A
S11300000EC01DC01CC01BC01AC019C018C017C028
S113001016C015C014C013C012C011C010C01124E2
S11300201FBECFE5D1E0DEBFCDBF20E0A0E6B0E04B
S113003001C01D92A336B207E1F7CBD0D0C0E0CF08
S113004021E030E0062E02C0220F331F0A94E2F7AB
S11300508223282F30E0C90102C0959587956A95BF
S1130060E2F7089521E030E0A90102C0440F551FD2
S11300706A95E2F7BA01FC012081622B608308953E
S113008021E030E0A90102C0440F551F6A95E2F750
S1130090BA016095FC0120816223608308959091E8
S11300A06000892B809360000895611105C0682F5A
S11300B082E690E0E5DF04C0682F82E690E0D2DFBC
S11300C08091620083D008955AD0109260001092FB
S11300D062001092610088E0E2DF8FE295E7019709
S11300E0F1F700C0000060E087E0DFDF60E086E059
S11300F0DCDF60E085E0D9DF0895AF92BF92CF9254
S1130100DF92EF92FF920F931F93CF93DF93A82E6A
S1130110C0E0D0E0E82EF12C6C2F8A2D91DFB82EB0
S113012087010C2E02C0159507950A94E2F7802FDB
S11301308170D82ECD2C00FF04C06D2D87E0B5DF73
S113014003C06D2D87E0B1DF6B2D85E0AEDF6D2D33
S113015087E0ABDF602F87E0A8DF6C2D87E0A5DFA9
S11301602196C830D105C1F6DF91CF911F910F912F
S1130170FF90EF90DF90CF90BF90AF900895B89A22
S1130180B99ABA9AC098C198C29808951F93CF9308
S1130190DF93D82F162F613099F4C09811C0C198FD
S11301A06C2F8D2F4DDF811102C0C29801C0C29AFD
S11301B0C19ACF5FC83099F7113021F4C09A02C0B8
S11301C0C0E0EDCFDF91CF911F91089561E0DEDFB4
S11301D008957ADF80E891DF80E090E00895F89454
S10501E0FFCF4B
S9030000FC
