S014000053686966744F7574546573742E737265633A
S11300000EC028C027C026C025C024C023C022C0DB
S113001021C020C01FC01EC01DC01CC01BC0112495
S11300201FBECFE5D1E0DEBFCDBF10E0A0E6B0E05B
S1130030ECE8F2E002C005900D92A036B107D9F7C2
S113004020E0A0E6B0E001C01D92A536B207E1F7BA
S113005018D11AC1D5CF21E030E0062E02C0220FFC
S1130060331F0A94E2F78223282F30E0C90102C02B
S1130070959587956A95E2F7089521E030E0A90106
S113008002C0440F551F6A95E2F7BA01FC012081B2
S1130090622B6083089521E030E0A90102C0440F7F
S11300A0551F6A95E2F7BA016095FC01208162232D
S11300B06083089590916100892B80936100089575
S11300C0611105C0682F83E690E0E5DF04C0682F66
S11300D083E690E0D2DF80916300D0D0089560E0A1
S11300E085E0EEDF00C061E085E0EADF00C060E0AB
S11300F085E0E6DF88E28A95F1F7000008950F9322
S11301001F93CF93DF93C82F60E0A5DF082F61E032
S11301108C2FA1DF182F62E08C2F9DDFD82F63E096
S11301208C2F99DFC82F602F84E0CADF612F83E012
S1130130C7DF6D2F82E0C4DF6C2F81E0C1DFCFDF2A
S1130140DF91CF911F910F910895CF93C82F87E02E
S1130150B7DF60E086E0B4DF8C2F82958F70CFDF4D
S11301608C2FCDDFCF91089560E0EFDF089581E01B
S1130170FBDF87E592E00197F1F700C000000895E6
S113018080916400982F9460909364008C60ECDFFD
S11301900895CF93C82F87E093DF60E086E090DF77
S11301A08C2F82958F70ABDFCF91089560E0F1DFE3
S11301B008953DD01092610084E08093640082E051
S11301C080936000109263001092620088E072DFF6
S11301D08FE295E70197F1F700C0000060E087E047
S11301E06FDF60E086E06CDF60E085E069DF8091CE
S11301F061008062DBDF8BE89AE00197F1F700C0D1
S11302000000809161008062D1DF98E79A95F1F750
S1130210809161008062CADF809161008062C6DFE4
S1130220AFDFA5DF8091600084609EDF0895B89AF7
S1130230B99ABA9AC098C198C29808951F93CF9357
S1130240DF93D82F162F613099F4C09811C0C1984C
S11302506C2F8D2F00DF811102C0C29801C0C29A99
S1130260C19ACF5FC83099F7113021F4C09A02C007
S1130270C0E0EDCFDF91CF911F91089561E0DEDF03
S10F0280089597DF0000FECFF894FFCF34
S9030000FC
