S014000053686966744F7574546573742E737265633A
S11300000EC020C01FC01EC01DC01CC01BC01AC013
S113001019C018C017C016C015C014C013C01124CD
S11300201FBECFE5D1E0DEBFCDBF10E0A0E6B0E05B
S1130030E8E1F3E002C005900D92A436B107D9F7C8
S113004022D068C1DDCF21E030E0062E02C0220FAD
S1130050331F0A94E2F78223282F30E0C90102C03B
S1130060959587956A95E2F7089580E090E07CD0B5
S11300708F3F09F48AEA90E06CD067D0682F80E063
S113008090E07AD00895F1DFB89AB99ABA9AD0E09C
S1130090C098CD2FC1986C2F87E0D5DF6C2F87E0F7
S11300A0D2DF811102C0C29801C0C29AC19ACF5F47
S11300B0C93081F7C09A2FE789EA93E02150804044
S11300C09040E1F700C00000E3CFA0E0B0E0EAE632
S11300D0F0E09FC0EC01688179818A819B81611580
S11300E071058105910521F464E279ED8BE597E0D2
S11300F02DE133EF41E050E04DD049015A0127EAA8
S113010031E440E050E062D069017A01C501B401F4
S11301102CEE34EF4FEF5FEF59D089019A01D701EC
S1130120C601800F911FA21FB31FB7FF03C0019721
S1130130A109B04888839983AA83BB839F77CDB7ED
S1130140DEB7ECE082C0C1DF089580E690E0BDDF59
S11301500895A0E0B0E08093600090936100A093C4
S11301606200B09363000895E199FECF1FBA8EBB7D
S1130170E09A99278DB30895262FE199FECF1CBAF2
S11301801FBA8EBB2DBB0FB6F894E29AE19A0FBE4C
S113019001960895052E97FB16F400940FD057FD91
S11301A005D068D007FC02D046F408C050954095AD
S11301B0309521953F4F4F4F5F4F0895909580950F
S11301C0709561957F4F8F4F9F4F089568940013EA
S11301D0E894A0E0B0E0EEEEF0E01DC0EFEFE7F948
S11301E059016A015E23550FEE08FE2C87019B011D
S11301F0AC019E23990F660B762FCB015DD0CDB752
S1130200DEB7EAE024C02F923F924F925F926F9242
S11302107F928F929F92AF92BF92CF92DF92EF9292
S1130220FF920F931F93CF93DF93CDB7DEB7CA1B13
S1130230DB0B0FB6F894DEBF0FBECDBF09942A883E
S1130240398848885F846E847D848C849B84AA84E6
S1130250B984C884DF80EE80FD800C811B81AA8173
S1130260B981CE0FD11D0FB6F894DEBF0FBECDBF3E
S1130270ED010895A1E21A2EAA1BBB1BFD010DC0BE
S1130280AA1FBB1FEE1FFF1FA217B307E407F50742
S113029020F0A21BB30BE40BF50B661F771F881F1E
S11302A0991F1A9469F760957095809590959B01B4
S11302B0AC01BD01CF010895DF93CF939F92A0E4D9
S11302C09A2E0024D001E001F00116950795F794C9
S11302D0E794D794C794B794A79448F41068A20FEE
S11302E0B31FC41FD51FE61FF71F081E191E220FB8
S11302F0331F441F551F661F771F881F991F9A9429
S113030021F79D01AE01BF01C00111249F90CF913F
S10B0310DF910895F894FFCF7A
S107031801000000DC
S9030000FC
